{
  "_format": "hh-sol-artifact-1",
  "contractName": "VotingDAO",
  "sourceName": "contracts/votingDAO.sol",
  "abi": [
    {
      "inputs": [],
      "stateMutability": "nonpayable",
      "type": "constructor"
    },
    {
      "anonymous": false,
      "inputs": [
        {
          "indexed": true,
          "internalType": "uint256",
          "name": "candidateId",
          "type": "uint256"
        },
        {
          "indexed": false,
          "internalType": "string",
          "name": "age",
          "type": "string"
        },
        {
          "indexed": false,
          "internalType": "string",
          "name": "name",
          "type": "string"
        },
        {
          "indexed": false,
          "internalType": "string",
          "name": "image",
          "type": "string"
        },
        {
          "indexed": false,
          "internalType": "uint256",
          "name": "voteCount",
          "type": "uint256"
        },
        {
          "indexed": false,
          "internalType": "address",
          "name": "_address",
          "type": "address"
        },
        {
          "indexed": false,
          "internalType": "string",
          "name": "ipfs",
          "type": "string"
        }
      ],
      "name": "CandidateCreate",
      "type": "event"
    },
    {
      "anonymous": false,
      "inputs": [
        {
          "indexed": true,
          "internalType": "uint256",
          "name": "voter_voterId",
          "type": "uint256"
        },
        {
          "indexed": false,
          "internalType": "string",
          "name": "voter_name",
          "type": "string"
        },
        {
          "indexed": false,
          "internalType": "string",
          "name": "voter_image",
          "type": "string"
        },
        {
          "indexed": false,
          "internalType": "address",
          "name": "voter_address",
          "type": "address"
        },
        {
          "indexed": false,
          "internalType": "uint256",
          "name": "voter_allowed",
          "type": "uint256"
        },
        {
          "indexed": false,
          "internalType": "bool",
          "name": "voter_voted",
          "type": "bool"
        },
        {
          "indexed": false,
          "internalType": "uint256",
          "name": "voter_vote",
          "type": "uint256"
        },
        {
          "indexed": false,
          "internalType": "string",
          "name": "voter_ipfs",
          "type": "string"
        }
      ],
      "name": "VoterCreated",
      "type": "event"
    },
    {
      "inputs": [],
      "name": "_candidateId",
      "outputs": [
        {
          "internalType": "uint256",
          "name": "_value",
          "type": "uint256"
        }
      ],
      "stateMutability": "view",
      "type": "function"
    },
    {
      "inputs": [],
      "name": "_voterId",
      "outputs": [
        {
          "internalType": "uint256",
          "name": "_value",
          "type": "uint256"
        }
      ],
      "stateMutability": "view",
      "type": "function"
    },
    {
      "inputs": [
        {
          "internalType": "uint256",
          "name": "",
          "type": "uint256"
        }
      ],
      "name": "candidateAddresses",
      "outputs": [
        {
          "internalType": "address",
          "name": "",
          "type": "address"
        }
      ],
      "stateMutability": "view",
      "type": "function"
    },
    {
      "inputs": [
        {
          "internalType": "address",
          "name": "",
          "type": "address"
        }
      ],
      "name": "candidates",
      "outputs": [
        {
          "internalType": "uint256",
          "name": "candidateId",
          "type": "uint256"
        },
        {
          "internalType": "string",
          "name": "age",
          "type": "string"
        },
        {
          "internalType": "string",
          "name": "name",
          "type": "string"
        },
        {
          "internalType": "string",
          "name": "image",
          "type": "string"
        },
        {
          "internalType": "uint256",
          "name": "voteCount",
          "type": "uint256"
        },
        {
          "internalType": "address",
          "name": "_address",
          "type": "address"
        },
        {
          "internalType": "string",
          "name": "ipfs",
          "type": "string"
        }
      ],
      "stateMutability": "view",
      "type": "function"
    },
    {
      "inputs": [],
      "name": "getCandidate",
      "outputs": [
        {
          "internalType": "address[]",
          "name": "",
          "type": "address[]"
        }
      ],
      "stateMutability": "view",
      "type": "function"
    },
    {
      "inputs": [],
      "name": "getCandidateLength",
      "outputs": [
        {
          "internalType": "uint256",
          "name": "",
          "type": "uint256"
        }
      ],
      "stateMutability": "view",
      "type": "function"
    },
    {
      "inputs": [
        {
          "internalType": "address",
          "name": "_address",
          "type": "address"
        }
      ],
      "name": "getCandidatedata",
      "outputs": [
        {
          "internalType": "uint256",
          "name": "",
          "type": "uint256"
        },
        {
          "internalType": "string",
          "name": "",
          "type": "string"
        },
        {
          "internalType": "string",
          "name": "",
          "type": "string"
        },
        {
          "internalType": "string",
          "name": "",
          "type": "string"
        },
        {
          "internalType": "uint256",
          "name": "",
          "type": "uint256"
        },
        {
          "internalType": "address",
          "name": "",
          "type": "address"
        },
        {
          "internalType": "string",
          "name": "",
          "type": "string"
        }
      ],
      "stateMutability": "view",
      "type": "function"
    },
    {
      "inputs": [],
      "name": "getVotedVoterlist",
      "outputs": [
        {
          "internalType": "address[]",
          "name": "",
          "type": "address[]"
        }
      ],
      "stateMutability": "view",
      "type": "function"
    },
    {
      "inputs": [],
      "name": "getVoterLength",
      "outputs": [
        {
          "internalType": "uint256",
          "name": "",
          "type": "uint256"
        }
      ],
      "stateMutability": "view",
      "type": "function"
    },
    {
      "inputs": [],
      "name": "getVoterList",
      "outputs": [
        {
          "internalType": "address[]",
          "name": "",
          "type": "address[]"
        }
      ],
      "stateMutability": "view",
      "type": "function"
    },
    {
      "inputs": [
        {
          "internalType": "address",
          "name": "_address",
          "type": "address"
        }
      ],
      "name": "getVoterdata",
      "outputs": [
        {
          "internalType": "uint256",
          "name": "",
          "type": "uint256"
        },
        {
          "internalType": "string",
          "name": "",
          "type": "string"
        },
        {
          "internalType": "string",
          "name": "",
          "type": "string"
        },
        {
          "internalType": "address",
          "name": "",
          "type": "address"
        },
        {
          "internalType": "uint256",
          "name": "",
          "type": "uint256"
        },
        {
          "internalType": "bool",
          "name": "",
          "type": "bool"
        },
        {
          "internalType": "string",
          "name": "",
          "type": "string"
        }
      ],
      "stateMutability": "view",
      "type": "function"
    },
    {
      "inputs": [
        {
          "internalType": "address",
          "name": "_address",
          "type": "address"
        },
        {
          "internalType": "string",
          "name": "_age",
          "type": "string"
        },
        {
          "internalType": "string",
          "name": "_name",
          "type": "string"
        },
        {
          "internalType": "string",
          "name": "_image",
          "type": "string"
        },
        {
          "internalType": "string",
          "name": "_ipfs",
          "type": "string"
        }
      ],
      "name": "setCandidate",
      "outputs": [],
      "stateMutability": "nonpayable",
      "type": "function"
    },
    {
      "inputs": [
        {
          "internalType": "address",
          "name": "_candidateAddress",
          "type": "address"
        },
        {
          "internalType": "uint256",
          "name": "_candidateVoteId",
          "type": "uint256"
        }
      ],
      "name": "vote",
      "outputs": [],
      "stateMutability": "nonpayable",
      "type": "function"
    },
    {
      "inputs": [
        {
          "internalType": "uint256",
          "name": "",
          "type": "uint256"
        }
      ],
      "name": "votedVoterAddresses",
      "outputs": [
        {
          "internalType": "address",
          "name": "",
          "type": "address"
        }
      ],
      "stateMutability": "view",
      "type": "function"
    },
    {
      "inputs": [
        {
          "internalType": "uint256",
          "name": "",
          "type": "uint256"
        }
      ],
      "name": "voterAddresses",
      "outputs": [
        {
          "internalType": "address",
          "name": "",
          "type": "address"
        }
      ],
      "stateMutability": "view",
      "type": "function"
    },
    {
      "inputs": [
        {
          "internalType": "address",
          "name": "_address",
          "type": "address"
        },
        {
          "internalType": "string",
          "name": "_name",
          "type": "string"
        },
        {
          "internalType": "string",
          "name": "_image",
          "type": "string"
        },
        {
          "internalType": "string",
          "name": "_ipfs",
          "type": "string"
        }
      ],
      "name": "voterRight",
      "outputs": [],
      "stateMutability": "nonpayable",
      "type": "function"
    },
    {
      "inputs": [
        {
          "internalType": "address",
          "name": "",
          "type": "address"
        }
      ],
      "name": "voters",
      "outputs": [
        {
          "internalType": "uint256",
          "name": "voter_voterId",
          "type": "uint256"
        },
        {
          "internalType": "string",
          "name": "voter_name",
          "type": "string"
        },
        {
          "internalType": "string",
          "name": "voter_image",
          "type": "string"
        },
        {
          "internalType": "address",
          "name": "voter_address",
          "type": "address"
        },
        {
          "internalType": "uint256",
          "name": "voter_allowed",
          "type": "uint256"
        },
        {
          "internalType": "bool",
          "name": "voter_voted",
          "type": "bool"
        },
        {
          "internalType": "uint256",
          "name": "voter_vote",
          "type": "uint256"
        },
        {
          "internalType": "string",
          "name": "voter_ipfs",
          "type": "string"
        }
      ],
      "stateMutability": "view",
      "type": "function"
    },
    {
      "inputs": [],
      "name": "votingOrganizer",
      "outputs": [
        {
          "internalType": "address",
          "name": "",
          "type": "address"
        }
      ],
      "stateMutability": "view",
      "type": "function"
    }
  ],
  "bytecode": "0x608060405234801561001057600080fd5b5033600260006101000a81548173ffffffffffffffffffffffffffffffffffffffff021916908373ffffffffffffffffffffffffffffffffffffffff160217905550612876806100616000396000f3fe608060405234801561001057600080fd5b50600436106101165760003560e01c8063a7388967116100a2578063c5036fd411610071578063c5036fd4146102f8578063c91ec7121461032e578063d55d73c51461034a578063dd0e23731461037a578063f7522a83146103aa57610116565b8063a738896714610268578063b28d92ae14610286578063b63c82ca146102a4578063b9be3152146102da57610116565b80635f74bbde116100e95780635f74bbde146101a357806370218b85146101bf5780638515124b146101dd5780638ab66a90146101fb578063a3ec138d1461023157610116565b80630361419e1461011b57806305ad45a414610137578063523681c7146101555780635cc48aa714610185575b600080fd5b61013560048036038101906101309190611bb0565b6103c8565b005b61013f610676565b60405161014c9190611c84565b60405180910390f35b61016f600480360381019061016a9190611ccb565b610683565b60405161017c9190611d07565b60405180910390f35b61018d6106c2565b60405161019a9190611d07565b60405180910390f35b6101bd60048036038101906101b89190611d22565b6106e8565b005b6101c76108af565b6040516101d49190611e20565b60405180910390f35b6101e561093d565b6040516101f29190611e20565b60405180910390f35b61021560048036038101906102109190611e42565b6109cb565b6040516102289796959493929190611eee565b60405180910390f35b61024b60048036038101906102469190611e42565b610c4d565b60405161025f989796959493929190611f94565b60405180910390f35b610270610e5a565b60405161027d9190611c84565b60405180910390f35b61028e610e66565b60405161029b9190611e20565b60405180910390f35b6102be60048036038101906102b99190611e42565b610ef4565b6040516102d19796959493929190611eee565b60405180910390f35b6102e261133a565b6040516102ef9190611c84565b60405180910390f35b610312600480360381019061030d9190611e42565b611346565b6040516103259796959493929190612027565b60405180910390f35b610348600480360381019061034391906120ab565b61170e565b005b610364600480360381019061035f9190611ccb565b611949565b6040516103719190611d07565b60405180910390f35b610394600480360381019061038f9190611ccb565b611988565b6040516103a19190611d07565b60405180910390f35b6103b26119c7565b6040516103bf9190611c84565b60405180910390f35b3373ffffffffffffffffffffffffffffffffffffffff16600260009054906101000a900473ffffffffffffffffffffffffffffffffffffffff1673ffffffffffffffffffffffffffffffffffffffff1614610458576040517f08c379a000000000000000000000000000000000000000000000000000000000815260040161044f906121e2565b60405180910390fd5b61046260006119d4565b600061046e60006119ea565b90506000600760008773ffffffffffffffffffffffffffffffffffffffff1673ffffffffffffffffffffffffffffffffffffffff168152602001908152602001600020905060008160040154146104fa576040517f08c379a00000000000000000000000000000000000000000000000000000000081526004016104f190612274565b60405180910390fd5b600181600401819055508481600101908161051591906124a0565b508381600201908161052791906124a0565b50858160030160006101000a81548173ffffffffffffffffffffffffffffffffffffffff021916908373ffffffffffffffffffffffffffffffffffffffff1602179055508181600001819055506103e8816006018190555060008160050160006101000a81548160ff021916908315150217905550828160070190816105ad91906124a0565b506006869080600181540180825580915050600190039060005260206000200160009091909190916101000a81548173ffffffffffffffffffffffffffffffffffffffff021916908373ffffffffffffffffffffffffffffffffffffffff160217905550817ff5f39971dd62d9929e3a9feaa6bb77fe7c7da0001babff8a65a7e51ad0201c1986868985600401548660050160009054906101000a900460ff1687600601548a6040516106669796959493929190612572565b60405180910390a2505050505050565b6000600680549050905090565b6005818154811061069357600080fd5b906000526020600020016000915054906101000a900473ffffffffffffffffffffffffffffffffffffffff1681565b600260009054906101000a900473ffffffffffffffffffffffffffffffffffffffff1681565b6000600760003373ffffffffffffffffffffffffffffffffffffffff1673ffffffffffffffffffffffffffffffffffffffff16815260200190815260200160002090508060050160009054906101000a900460ff161561077d576040517f08c379a000000000000000000000000000000000000000000000000000000000815260040161077490612642565b60405180910390fd5b60008160040154036107c4576040517f08c379a00000000000000000000000000000000000000000000000000000000081526004016107bb906126ae565b60405180910390fd5b60018160050160006101000a81548160ff0219169083151502179055508181600601819055506005339080600181540180825580915050600190039060005260206000200160009091909190916101000a81548173ffffffffffffffffffffffffffffffffffffffff021916908373ffffffffffffffffffffffffffffffffffffffff1602179055508060040154600460008573ffffffffffffffffffffffffffffffffffffffff1673ffffffffffffffffffffffffffffffffffffffff16815260200190815260200160002060040160008282546108a391906126fd565b92505081905550505050565b6060600380548060200260200160405190810160405280929190818152602001828054801561093357602002820191906000526020600020905b8160009054906101000a900473ffffffffffffffffffffffffffffffffffffffff1673ffffffffffffffffffffffffffffffffffffffff16815260200190600101908083116108e9575b5050505050905090565b606060058054806020026020016040519081016040528092919081815260200182805480156109c157602002820191906000526020600020905b8160009054906101000a900473ffffffffffffffffffffffffffffffffffffffff1673ffffffffffffffffffffffffffffffffffffffff1681526020019060010190808311610977575b5050505050905090565b60046020528060005260406000206000915090508060000154908060010180546109f4906122c3565b80601f0160208091040260200160405190810160405280929190818152602001828054610a20906122c3565b8015610a6d5780601f10610a4257610100808354040283529160200191610a6d565b820191906000526020600020905b815481529060010190602001808311610a5057829003601f168201915b505050505090806002018054610a82906122c3565b80601f0160208091040260200160405190810160405280929190818152602001828054610aae906122c3565b8015610afb5780601f10610ad057610100808354040283529160200191610afb565b820191906000526020600020905b815481529060010190602001808311610ade57829003601f168201915b505050505090806003018054610b10906122c3565b80601f0160208091040260200160405190810160405280929190818152602001828054610b3c906122c3565b8015610b895780601f10610b5e57610100808354040283529160200191610b89565b820191906000526020600020905b815481529060010190602001808311610b6c57829003601f168201915b5050505050908060040154908060050160009054906101000a900473ffffffffffffffffffffffffffffffffffffffff1690806006018054610bca906122c3565b80601f0160208091040260200160405190810160405280929190818152602001828054610bf6906122c3565b8015610c435780601f10610c1857610100808354040283529160200191610c43565b820191906000526020600020905b815481529060010190602001808311610c2657829003601f168201915b5050505050905087565b6007602052806000526040600020600091509050806000015490806001018054610c76906122c3565b80601f0160208091040260200160405190810160405280929190818152602001828054610ca2906122c3565b8015610cef5780601f10610cc457610100808354040283529160200191610cef565b820191906000526020600020905b815481529060010190602001808311610cd257829003601f168201915b505050505090806002018054610d04906122c3565b80601f0160208091040260200160405190810160405280929190818152602001828054610d30906122c3565b8015610d7d5780601f10610d5257610100808354040283529160200191610d7d565b820191906000526020600020905b815481529060010190602001808311610d6057829003601f168201915b5050505050908060030160009054906101000a900473ffffffffffffffffffffffffffffffffffffffff16908060040154908060050160009054906101000a900460ff1690806006015490806007018054610dd7906122c3565b80601f0160208091040260200160405190810160405280929190818152602001828054610e03906122c3565b8015610e505780601f10610e2557610100808354040283529160200191610e50565b820191906000526020600020905b815481529060010190602001808311610e3357829003601f168201915b5050505050905088565b60018060000154905081565b60606006805480602002602001604051908101604052809291908181526020018280548015610eea57602002820191906000526020600020905b8160009054906101000a900473ffffffffffffffffffffffffffffffffffffffff1673ffffffffffffffffffffffffffffffffffffffff1681526020019060010190808311610ea0575b5050505050905090565b600060608060606000806060600460008973ffffffffffffffffffffffffffffffffffffffff1673ffffffffffffffffffffffffffffffffffffffff16815260200190815260200160002060000154600460008a73ffffffffffffffffffffffffffffffffffffffff1673ffffffffffffffffffffffffffffffffffffffff168152602001908152602001600020600101600460008b73ffffffffffffffffffffffffffffffffffffffff1673ffffffffffffffffffffffffffffffffffffffff168152602001908152602001600020600201600460008c73ffffffffffffffffffffffffffffffffffffffff1673ffffffffffffffffffffffffffffffffffffffff168152602001908152602001600020600301600460008d73ffffffffffffffffffffffffffffffffffffffff1673ffffffffffffffffffffffffffffffffffffffff16815260200190815260200160002060040154600460008e73ffffffffffffffffffffffffffffffffffffffff1673ffffffffffffffffffffffffffffffffffffffff16815260200190815260200160002060050160009054906101000a900473ffffffffffffffffffffffffffffffffffffffff16600460008f73ffffffffffffffffffffffffffffffffffffffff1673ffffffffffffffffffffffffffffffffffffffff1681526020019081526020016000206006018580546110fd906122c3565b80601f0160208091040260200160405190810160405280929190818152602001828054611129906122c3565b80156111765780601f1061114b57610100808354040283529160200191611176565b820191906000526020600020905b81548152906001019060200180831161115957829003601f168201915b50505050509550848054611189906122c3565b80601f01602080910402602001604051908101604052809291908181526020018280546111b5906122c3565b80156112025780601f106111d757610100808354040283529160200191611202565b820191906000526020600020905b8154815290600101906020018083116111e557829003601f168201915b50505050509450838054611215906122c3565b80601f0160208091040260200160405190810160405280929190818152602001828054611241906122c3565b801561128e5780601f106112635761010080835404028352916020019161128e565b820191906000526020600020905b81548152906001019060200180831161127157829003601f168201915b505050505093508080546112a1906122c3565b80601f01602080910402602001604051908101604052809291908181526020018280546112cd906122c3565b801561131a5780601f106112ef5761010080835404028352916020019161131a565b820191906000526020600020905b8154815290600101906020018083116112fd57829003601f168201915b505050505090509650965096509650965096509650919395979092949650565b60008060000154905081565b600060608060008060006060600760008973ffffffffffffffffffffffffffffffffffffffff1673ffffffffffffffffffffffffffffffffffffffff16815260200190815260200160002060000154600760008a73ffffffffffffffffffffffffffffffffffffffff1673ffffffffffffffffffffffffffffffffffffffff168152602001908152602001600020600101600760008b73ffffffffffffffffffffffffffffffffffffffff1673ffffffffffffffffffffffffffffffffffffffff168152602001908152602001600020600201600760008c73ffffffffffffffffffffffffffffffffffffffff1673ffffffffffffffffffffffffffffffffffffffff16815260200190815260200160002060030160009054906101000a900473ffffffffffffffffffffffffffffffffffffffff16600760008d73ffffffffffffffffffffffffffffffffffffffff1673ffffffffffffffffffffffffffffffffffffffff16815260200190815260200160002060040154600760008e73ffffffffffffffffffffffffffffffffffffffff1673ffffffffffffffffffffffffffffffffffffffff16815260200190815260200160002060050160009054906101000a900460ff16600760008f73ffffffffffffffffffffffffffffffffffffffff1673ffffffffffffffffffffffffffffffffffffffff16815260200190815260200160002060070185805461155d906122c3565b80601f0160208091040260200160405190810160405280929190818152602001828054611589906122c3565b80156115d65780601f106115ab576101008083540402835291602001916115d6565b820191906000526020600020905b8154815290600101906020018083116115b957829003601f168201915b505050505095508480546115e9906122c3565b80601f0160208091040260200160405190810160405280929190818152602001828054611615906122c3565b80156116625780601f1061163757610100808354040283529160200191611662565b820191906000526020600020905b81548152906001019060200180831161164557829003601f168201915b50505050509450808054611675906122c3565b80601f01602080910402602001604051908101604052809291908181526020018280546116a1906122c3565b80156116ee5780601f106116c3576101008083540402835291602001916116ee565b820191906000526020600020905b8154815290600101906020018083116116d157829003601f168201915b505050505090509650965096509650965096509650919395979092949650565b3373ffffffffffffffffffffffffffffffffffffffff16600260009054906101000a900473ffffffffffffffffffffffffffffffffffffffff1673ffffffffffffffffffffffffffffffffffffffff161461179e576040517f08c379a0000000000000000000000000000000000000000000000000000000008152600401611795906127a3565b60405180910390fd5b6117a860016119d4565b60006117b460016119ea565b90506000600460008873ffffffffffffffffffffffffffffffffffffffff1673ffffffffffffffffffffffffffffffffffffffff16815260200190815260200160002090508181600001819055508581600101908161181391906124a0565b508481600201908161182591906124a0565b508381600301908161183791906124a0565b5060008160040181905550868160050160006101000a81548173ffffffffffffffffffffffffffffffffffffffff021916908373ffffffffffffffffffffffffffffffffffffffff1602179055508281600601908161189691906124a0565b506003879080600181540180825580915050600190039060005260206000200160009091909190916101000a81548173ffffffffffffffffffffffffffffffffffffffff021916908373ffffffffffffffffffffffffffffffffffffffff160217905550817fd297f12b256bb8485a6013fb5e302017018123e99a0ebb20756c09e1707b4b9087878785600401548c89604051611938969594939291906127c3565b60405180910390a250505050505050565b6003818154811061195957600080fd5b906000526020600020016000915054906101000a900473ffffffffffffffffffffffffffffffffffffffff1681565b6006818154811061199857600080fd5b906000526020600020016000915054906101000a900473ffffffffffffffffffffffffffffffffffffffff1681565b6000600380549050905090565b6001816000016000828254019250508190555050565b600081600001549050919050565b6000604051905090565b600080fd5b600080fd5b600073ffffffffffffffffffffffffffffffffffffffff82169050919050565b6000611a3782611a0c565b9050919050565b611a4781611a2c565b8114611a5257600080fd5b50565b600081359050611a6481611a3e565b92915050565b600080fd5b600080fd5b6000601f19601f8301169050919050565b7f4e487b7100000000000000000000000000000000000000000000000000000000600052604160045260246000fd5b611abd82611a74565b810181811067ffffffffffffffff82111715611adc57611adb611a85565b5b80604052505050565b6000611aef6119f8565b9050611afb8282611ab4565b919050565b600067ffffffffffffffff821115611b1b57611b1a611a85565b5b611b2482611a74565b9050602081019050919050565b82818337600083830152505050565b6000611b53611b4e84611b00565b611ae5565b905082815260208101848484011115611b6f57611b6e611a6f565b5b611b7a848285611b31565b509392505050565b600082601f830112611b9757611b96611a6a565b5b8135611ba7848260208601611b40565b91505092915050565b60008060008060808587031215611bca57611bc9611a02565b5b6000611bd887828801611a55565b945050602085013567ffffffffffffffff811115611bf957611bf8611a07565b5b611c0587828801611b82565b935050604085013567ffffffffffffffff811115611c2657611c25611a07565b5b611c3287828801611b82565b925050606085013567ffffffffffffffff811115611c5357611c52611a07565b5b611c5f87828801611b82565b91505092959194509250565b6000819050919050565b611c7e81611c6b565b82525050565b6000602082019050611c996000830184611c75565b92915050565b611ca881611c6b565b8114611cb357600080fd5b50565b600081359050611cc581611c9f565b92915050565b600060208284031215611ce157611ce0611a02565b5b6000611cef84828501611cb6565b91505092915050565b611d0181611a2c565b82525050565b6000602082019050611d1c6000830184611cf8565b92915050565b60008060408385031215611d3957611d38611a02565b5b6000611d4785828601611a55565b9250506020611d5885828601611cb6565b9150509250929050565b600081519050919050565b600082825260208201905092915050565b6000819050602082019050919050565b611d9781611a2c565b82525050565b6000611da98383611d8e565b60208301905092915050565b6000602082019050919050565b6000611dcd82611d62565b611dd78185611d6d565b9350611de283611d7e565b8060005b83811015611e13578151611dfa8882611d9d565b9750611e0583611db5565b925050600181019050611de6565b5085935050505092915050565b60006020820190508181036000830152611e3a8184611dc2565b905092915050565b600060208284031215611e5857611e57611a02565b5b6000611e6684828501611a55565b91505092915050565b600081519050919050565b600082825260208201905092915050565b60005b83811015611ea9578082015181840152602081019050611e8e565b60008484015250505050565b6000611ec082611e6f565b611eca8185611e7a565b9350611eda818560208601611e8b565b611ee381611a74565b840191505092915050565b600060e082019050611f03600083018a611c75565b8181036020830152611f158189611eb5565b90508181036040830152611f298188611eb5565b90508181036060830152611f3d8187611eb5565b9050611f4c6080830186611c75565b611f5960a0830185611cf8565b81810360c0830152611f6b8184611eb5565b905098975050505050505050565b60008115159050919050565b611f8e81611f79565b82525050565b600061010082019050611faa600083018b611c75565b8181036020830152611fbc818a611eb5565b90508181036040830152611fd08189611eb5565b9050611fdf6060830188611cf8565b611fec6080830187611c75565b611ff960a0830186611f85565b61200660c0830185611c75565b81810360e08301526120188184611eb5565b90509998505050505050505050565b600060e08201905061203c600083018a611c75565b818103602083015261204e8189611eb5565b905081810360408301526120628188611eb5565b90506120716060830187611cf8565b61207e6080830186611c75565b61208b60a0830185611f85565b81810360c083015261209d8184611eb5565b905098975050505050505050565b600080600080600060a086880312156120c7576120c6611a02565b5b60006120d588828901611a55565b955050602086013567ffffffffffffffff8111156120f6576120f5611a07565b5b61210288828901611b82565b945050604086013567ffffffffffffffff81111561212357612122611a07565b5b61212f88828901611b82565b935050606086013567ffffffffffffffff8111156121505761214f611a07565b5b61215c88828901611b82565b925050608086013567ffffffffffffffff81111561217d5761217c611a07565b5b61218988828901611b82565b9150509295509295909350565b7f6f6e6c79206f7267616e697a65722063616e2063726561746520766f74657200600082015250565b60006121cc601f83611e7a565b91506121d782612196565b602082019050919050565b600060208201905081810360008301526121fb816121bf565b9050919050565b7f63616e206e6f7420766f74652062656361757365206f6620766f7465725f616c60008201527f6c6f776564206973206e6f742030000000000000000000000000000000000000602082015250565b600061225e602e83611e7a565b915061226982612202565b604082019050919050565b6000602082019050818103600083015261228d81612251565b9050919050565b7f4e487b7100000000000000000000000000000000000000000000000000000000600052602260045260246000fd5b600060028204905060018216806122db57607f821691505b6020821081036122ee576122ed612294565b5b50919050565b60008190508160005260206000209050919050565b60006020601f8301049050919050565b600082821b905092915050565b6000600883026123567fffffffffffffffffffffffffffffffffffffffffffffffffffffffffffffffff82612319565b6123608683612319565b95508019841693508086168417925050509392505050565b6000819050919050565b600061239d61239861239384611c6b565b612378565b611c6b565b9050919050565b6000819050919050565b6123b783612382565b6123cb6123c3826123a4565b848454612326565b825550505050565b600090565b6123e06123d3565b6123eb8184846123ae565b505050565b5b8181101561240f576124046000826123d8565b6001810190506123f1565b5050565b601f82111561245457612425816122f4565b61242e84612309565b8101602085101561243d578190505b61245161244985612309565b8301826123f0565b50505b505050565b600082821c905092915050565b600061247760001984600802612459565b1980831691505092915050565b60006124908383612466565b9150826002028217905092915050565b6124a982611e6f565b67ffffffffffffffff8111156124c2576124c1611a85565b5b6124cc82546122c3565b6124d7828285612413565b600060209050601f83116001811461250a57600084156124f8578287015190505b6125028582612484565b86555061256a565b601f198416612518866122f4565b60005b828110156125405784890151825560018201915060208501945060208101905061251b565b8683101561255d5784890151612559601f891682612466565b8355505b6001600288020188555050505b505050505050565b600060e082019050818103600083015261258c818a611eb5565b905081810360208301526125a08189611eb5565b90506125af6040830188611cf8565b6125bc6060830187611c75565b6125c96080830186611f85565b6125d660a0830185611c75565b81810360c08301526125e88184611eb5565b905098975050505050505050565b7f796f75206861766520616c726561647920766f74656400000000000000000000600082015250565b600061262c601683611e7a565b9150612637826125f6565b602082019050919050565b6000602082019050818103600083015261265b8161261f565b9050919050565b7f596f752068617665206e6f20726967687420746f20766f746500000000000000600082015250565b6000612698601983611e7a565b91506126a382612662565b602082019050919050565b600060208201905081810360008301526126c78161268b565b9050919050565b7f4e487b7100000000000000000000000000000000000000000000000000000000600052601160045260246000fd5b600061270882611c6b565b915061271383611c6b565b925082820190508082111561272b5761272a6126ce565b5b92915050565b7f6f6e6c79206f7267616e697a65722063616e206372656174652073657443616e60008201527f6469646174650000000000000000000000000000000000000000000000000000602082015250565b600061278d602683611e7a565b915061279882612731565b604082019050919050565b600060208201905081810360008301526127bc81612780565b9050919050565b600060c08201905081810360008301526127dd8189611eb5565b905081810360208301526127f18188611eb5565b905081810360408301526128058187611eb5565b90506128146060830186611c75565b6128216080830185611cf8565b81810360a08301526128338184611eb5565b905097965050505050505056fea2646970667358221220d1611429b2c8d77eafde5ca7f3055dc0351ddd6b59f27d229c3ee1157763fd9364736f6c63430008110033",
  "linkReferences": {},
  "deployedLinkReferences": {}
}